:100000000C9406130C9430130C9430130C9430138E
:100010000C9430130C9430130C9430130C94301354
:100020000C9430130C9430130C9430130C94301344
:100030000C9430130C94EF750C9430130C94301313
:100040000C9430130C94B6A80C945E500C9430139E
:100050000C94F3350C9430130C9430130C9430132F
:100060000C9430130C9430130C9430130C94301304
:100070000C9430130C9430130C9430130C943013F4
:100080000C9430130C9430130C94301312ABA4ABBB
:10009000A8ABBBABC6ABD9ABDDAB02AB97BA9ABAD8
:1000A0008DBA91BAB1BAB1BA9EBAA2BAA8BAACBA6C
:1000B00079BE7EBE83BE8DBEBBBEBBBE97BE9FBE9D
:1000C000A7BEB1BE084AD73B3BCE016E84BCBFFD84
:1000D000C12F3D6C74319ABD56833DDA3D00C77F18
:1000E00011BED9E4BB4C3E916BAAAABE00000080B1
:1000F0003F05A84CCDB2D44EB93836A9020C50B940
:10010000918688083CA6AAAA2ABE000000803F006B
:100110004E414E494E495459494E46CDCCCC3D0AEC
:10012000D7233C17B7D13877CC2B329595E6241FCF
:10013000B14F0A000020410000C84200401C462088
:10014000BCBE4CCA1B0E5AAEC59D74434F4D4D5597
:100150004E49434154494F4E0044525952554E0066
:100160004552524F525300494E464F004543484F67
:100170000047322F47332062616420706172616DE5
:1001800065746572730A00536C6565702E2E2E00BF
:10019000486F6D652058592066697273740A00486B
:1001A0006F6D652058592066697273740050726FC4
:1001B00062696E67206661696C65640A0050726FDF
:1001C00062696E67206661696C656400205A3A2036
:1001D0000020593A200042656420583A2000205AF5
:1001E0003A200020593A200042656420583A200005
:1001F000436C69636B20746F20726573756D652E37
:100200002E2E004E6F206D6F76652E00456E642099
:1002100066696C65206C6973740A00426567696E73
:100220002066696C65206C6973740A00286E6F2003
:1002300066696C6529005344207072696E74696E3A
:1002400067206279746520004E6F742053442070DB
:1002500072696E74696E670A0043757272656E74B6
:100260002066696C653A20005072696E742074696A
:100270006D653A20006C016701600159014B016F07
:1002800066660044454255473A004B494C4C45444C
:100290002E20004D3131332053006F6B003344204A
:1002A0005072696E746572204F66662E002C2000B5
:1002B0002C2000544845524D414C5F50524F5445FC
:1002C0004354494F4E004155544F5245504F52549C
:1002D0005F53445F53544154555300454D45524775
:1002E000454E43595F504152534552004341534597
:1002F0005F4C494748545F4252494748544E455322
:100300005300544F47474C455F4C494748545300AE
:10031000534F4654574152455F504F574552004244
:1003200055494C445F50455243454E54004C455648
:10033000454C494E475F44415441005A5F50524F2B
:100340004245004155544F4C4556454C005052498A
:100350004E545F4A4F420050524F4752455353004C
:100360004155544F5245504F52545F54454D5000E3
:10037000564F4C554D455452494300454550524FF8
:100380004D0053455249414C5F584F4E5F584F46C0
:1003900046004649524D574152455F4E414D453A00
:1003A0004D61726C696E20312E312E3920284769DB
:1003B000746875622920534F555243455F434F443B
:1003C000455F55524C3A68747470733A2F2F6769C1
:1003D000746875622E636F6D2F4D61726C696E4625
:1003E00069726D776172652F4D61726C696E205014
:1003F000524F544F434F4C5F56455253494F4E3A1C
:10040000312E30204D414348494E455F54595045A7
:100410003A3344205072696E7465722045585452C4
:10042000554445525F434F554E543A312055554936
:10043000443A63656465326132662D343161322D30
:10044000343734382D396231322D633535633632E5
:100450006633363766660A002F2F20004D3134355B
:1004600020533C696E6465783E206F7574206F661A
:100470002072616E67652028302D31290A002054D2
:1004800000205200416363656C65726174696F6E30
:100490003A20500020466C6F773A200000010F157B
:1004A0000E12FFFFFFFF16170E13FFFFFFFF0302E1
:1004B0001A14FFFFFFFFFFFFFF0C04FFFFFF010007
:1004C0000EFFFFFF0C190DFF1820643A0020693A57
:1004D0000020703A00496E76616C6964206578741A
:1004E00072756465720A0043290A0061626C656472
:1004F00020286D696E2074656D702000436F6C64F8
:100500002065787472756465732061726520004E91
:100510006F2063617365206C696768740A004545E4
:1005200050524F4D204F4B0A003F5A206F75742098
:100530006F662072616E676520282D323020746FDF
:10054000203230290A003A200050726F6265205A2A
:10055000204F666673657400416374697665204553
:10056000787472756465723A2000496E76616C69C0
:10057000642065787472756465720A002569730079
:1005800025696D20256973002569682025696D201E
:1005900025697300256964202569682025696D2017
:1005A00025697300256979202569642025696820FB
:1005B00025696D20256973004B494C4C45442E201C
:1005C0000053544F505045442E20005072696E74B1
:1005D00065722073746F7070656420647565207433
:1005E0006F206572726F72732E204669782074686E
:1005F00065206572726F7220616E6420757365206C
:100600004D39393920746F20726573746172742E9C
:10061000202854656D706572617475726520697308
:100620002072657365742E2053657420697420618F
:10063000667465722072657374617274696E67297D
:100640000A004E6F20436865636B73756D20776990
:100650007468206C696E65206E756D6265722C2001
:100660004C617374204C696E653A20004E6F2043D4
:100670006865636B73756D2077697468206C696E4B
:1006800065206E756D6265722C204C617374204C10
:10069000696E653A2000636865636B73756D206DE4
:1006A00069736D617463682C204C617374204C69AC
:1006B0006E653A20004C696E65204E756D626572FC
:1006C000206973206E6F74204C617374204C696EC6
:1006D00065204E756D6265722B312C204C617374F0
:1006E000204C696E653A20004D313130004D333178
:1006F0000053442072656164206572726F720A0053
:10070000446F6E65207072696E74696E67206669E9
:100710006C650A0020496E76616C696420657874A6
:1007200072756465722000000028C2000080BF005E
:1007300000000000005C4300005C430000484348A8
:100740006F6D696E67206661696C65640046696CEF
:10075000652064656C657465643A0044656C657415
:10076000696F6E206661696C65642C2046696C65F2
:100770003A200050726F7465637465642050696E2E
:100780000A0046696C616D656E7420757365643A24
:10079000200053746174733A20002C204C6F6E67F4
:1007A000657374206A6F623A2000546F74616C2024
:1007B00074696D653A200053746174733A20002C9B
:1007C000204661696C65643A20002C2046696E6998
:1007D000736865643A20005072696E74733A200041
:1007E00053746174733A20003A0A0020286D6D2911
:1007F0000020204D383531205A005A2D50726F623A
:1008000065204F666673657400204400204900200F
:10081000204D3330312050005049442073657474AA
:10082000696E67733A0A00204600204200204800A3
:1008300020204D3134352053004D6174657269615B
:100840006C2068656174757020706172616D65748B
:100850006572733A0A00205A0020590020204D3258
:100860003036205800486F6D65206F66667365747A
:100870003A0A00204500205A002059002058002044
:10088000540020530020204D3230352051002045A7
:100890003C6D61785F655F6A65726B3E0020583C15
:1008A0006D61785F785F6A65726B3E20593C6D615F
:1008B000785F795F6A65726B3E205A3C6D61785F44
:1008C0007A5F6A65726B3E00416476616E6365644F
:1008D0003A20513C6D696E5F7365676D656E745F3C
:1008E00074696D655F75733E20533C6D696E5F661C
:1008F000656564726174653E20543C6D696E5F7419
:10090000726176656C5F66656564726174653E00F0
:1009100020540020520020204D323034205000411D
:100920006363656C65726174696F6E2028756E69AA
:1009300074732F7332293A20503C7072696E745F61
:10094000616363656C3E20523C72657472616374CE
:100950005F616363656C3E20543C74726176656CC4
:100960005F616363656C3E0A00204500205A0020E9
:10097000590020204D3230312058004D6178696D8A
:10098000756D20416363656C65726174696F6E207B
:1009900028756E6974732F7332293A0A0020450056
:1009A000205A0020590020204D3230332058004D6D
:1009B0006178696D756D20666565647261746573D3
:1009C0002028756E6974732F73293A0A0020450038
:1009D000205A0020590020204D39322058005374ED
:1009E0006570732070657220756E69743A0A002014
:1009F000204D3230302044300A0020204D3230303B
:100A00002044002044697361626C65640A00466991
:100A10006C616D656E742073657474696E67733A8A
:100A20000020204D3134392043203B20556E69741D
:100A30007320696E2043656C736975730A0020200A
:100A4000473231202020203B00545249474745522D
:100A50004544006F70656E003A20007A5F6D696EE4
:100A600000795F6D696E00785F6D696E0052657028
:100A70006F7274696E6720656E6473746F70207333
:100A800074617475730A00457874727564657200D8
:100A90004D6F7665205A004D6F76652059004D6F79
:100AA00076652058005072657061726500496E6904
:100AB0007469616C697A6520454550524F4D004319
:100AC0006F6E74726F6C00526573746F726520661E
:100AD00061696C73616665004C6F61642073657455
:100AE00074696E677300496E697469616C697A65CF
:100AF00020454550524F4D0053746F726520736509
:100B00007474696E67730046696C616D656E74001C
:100B10004D6F74696F6E0054656D706572617475A8
:100B20007265004D61696E004D33303320553120C0
:100B300045256920532569005072656865617420F8
:100B400041425320636F6E66005072656865617440
:100B500020504C4120636F6E66005049442041751F
:100B6000746F74756E6500504944204175746F74DC
:100B7000756E6500504944204175746F74756E65DB
:100B8000005049442D44005049442D4400504944EC
:100B90002D49005049442D49005049442D500050E2
:100BA00049442D5000200220466163740020022039
:100BB00046616374002002204D6178002002204DC0
:100BC0006178002002204D6178002002204D696E7E
:100BD000002002204D696E002002204D696E004FFA
:100BE0006666004F6E20004175746F74656D70000D
:100BF00046616E2073706565640046616E20737097
:100C00006565640046616E207370656564004265C9
:100C1000640042656400426564004E6F7A7A6C65D8
:100C2000004E6F7A7A6C65004E6F7A7A6C6500437D
:100C30006F6E74726F6C0053746F7265207365749D
:100C400074696E67730042656400426564004265C2
:100C500064004E6F7A7A6C65004E6F7A7A6C65002C
:100C60004E6F7A7A6C650046616E207370656564BC
:100C70000046616E2073706565640046616E207386
:100C8000706565640054656D706572617475726538
:100C900000466C6F7700466C6F7700466C6F77008C
:100CA00046616E2073706565640046616E207370E6
:100CB0006565640046616E20737065656400426519
:100CC000640042656400426564004E6F7A7A6C6528
:100CD000004E6F7A7A6C65004E6F7A7A6C650053BD
:100CE0007065656400537065656400537065656484
:100CF000004D61696E005072656865617420504CEA
:100D00004120426564005072656865617420504CF2
:100D10004120456E64005072656865617420504CD6
:100D2000410050726570617265005072656865615E
:100D3000742041425320456E6400507265686561BD
:100D400074204142532042656400507265686561B9
:100D500074204142530050726570617265004D34D9
:100D60003238005072656865617420504C41004310
:100D70006F6F6C646F776E00507265686561742088
:100D80004142530044697361626C652073746570FD
:100D900070657273004D38340053657420686F6D50
:100DA00065206F666673657473004175746F2068A3
:100DB0006F6D6500473238004D6F76652061786948
:100DC00073004D61696E004D6F76652058004D6F60
:100DD00076652059004D6F7665205A00457874720B
:100DE00075646572004D6F766520302E316D6D0033
:100DF0004D6F766520316D6D004D6F766520313019
:100E00006D6D004D6F76652061786973004578746B
:100E10007275646572004D6F7665205A004D6F766D
:100E2000652059004D6F76652058000000000001D4
:100E30000204040000001C1C0C0404040201000055
:100E400000000004081000000000002D2D2D2D2DA5
:100E50002D007C4D61726C696E7C002D2D2D2D2D29
:100E60002D00687474703A2F2F6D61726C696E6614
:100E7000772E6F726700687474703A2F2F6D6172ED
:100E80006C696E66772E6F72670020312E312E39B5
:100E9000002020506C616E6E6572427566666572E8
:100EA00042797465733A20002046726565204D656D
:100EB0006D6F72793A2000436F6D70696C65643AAA
:100EC000204F637420323020323031390A00207CC8
:100ED00020417574686F723A20284174696573689F
:100EE0002C2032303139290A00323031382D303857
:100EF0002D303100204C617374205570646174652D
:100F0000643A2000312E312E390A004D61726C692D
:100F10006E0020536F667477617265205265736549
:100F2000740A00205761746368646F6720526573A8
:100F300065740A002042726F776E206F75742052BC
:100F4000657365740A002045787465726E616C2063
:100F500052657365740A00506F77657255700A00A8
:100F600073746172740A006175746F25692E67006D
:100F70006572726F722077726974696E6720746F20
:100F80002066696C650A00456E6473746F70732027
:100F9000256320256320256320256300205A3A001D
:100FA00020593A0020583A00656E6473746F70736C
:100FB000206869743A2000446F6E65207361766919
:100FC0006E672066696C652E0A004D3239005772D3
:100FD0006974696E6720746F2066696C653A2000D9
:100FE0006F70656E206661696C65642C2046696C63
:100FF000653A20006F70656E206661696C65642CCF
:101000002046696C653A200046696C652073656C02
:1010100065637465640A002053697A653A20004666
:10102000696C65206F70656E65643A2000206669A2
:101030006C653A2000646F696E670066726573685C
:10104000004E6F772000454E4420535542524F5575
:1010500054494E450A002220706F730022207061AF
:1010600072656E743A2200535542524F5554494EA0
:10107000452043414C4C207461726765743A2200EC
:101080004B494C4C45442E2000747279696E6720A0
:10109000746F2063616C6C207375622D67636F647D
:1010A000652066696C6573207769746820746F6F5A
:1010B000206D616E79206C6576656C732E204D41D4
:1010C00058206C6576656C2069733A004572726FC2
:1010D000723A006F70656E206661696C65642C20E1
:1010E00046696C653A200043616E6E6F74206F70C4
:1010F000656E2073756264697220006563686F3A7B
:1011000000001C1F11111F00000006191803130C0A
:1011100000040E1F041C000000000E1315110E0029
:10112000001C10181705060500040A0A0A0A111106
:101130000E0C12120C00000000001F1511151F00EC
:10114000004573746570732F6D6D00457374657021
:10115000732F6D6D005A73746570732F6D6D005A27
:1011600073746570732F6D6D005973746570732F90
:101170006D6D005973746570732F6D6D00587374C5
:101180006570732F6D6D005873746570732F6D6D7E
:10119000004D6F74696F6E0053746570732F6D6DC1
:1011A000004A65726B00416363656C6572617469C6
:1011B0006F6E0056656C6F636974790050726F6270
:1011C00065205A204F66667365740050726F6265C1
:1011D000205A204F666673657400436F6E74726F99
:1011E0006C0046696C2E204469612E0046696C2EA5
:1011F000204469612E004F6666004F6E2000452036
:10120000696E206D6D3300436F6E74726F6C0043B6
:10121000616E6E6F7420656E7465722073756264A2
:1012200069723A2000052E2E0004526566726573BD
:1012300068004D61696E00526573656E643A200006
:101240006F6B0020746F6F206C6F6E672065787411
:10125000727573696F6E2070726576656E74656401
:101260000A0020636F6C6420657874727573696F0F
:101270006E2070726576656E7465640A00627573BF
:10128000793A2070617573656420666F7220696EAB
:101290007075740A00627573793A207061757365B0
:1012A0006420666F7220757365720A0062757379C7
:1012B0003A2070726F63657373696E670A004B49F9
:1012C0004C4C45442E20004B494C4C2063617573B7
:1012D000656420627920746F6F206D756368206982
:1012E0006E6163746976652074696D65202D206375
:1012F000757272656E7420636F6D6D616E643A20F5
:1013000000506C656173652072657365740050529E
:10131000494E5445522048414C544544005072694E
:101320006E7465722068616C7465642E206B696CE4
:101330006C28292063616C6C6564210A00656E71FC
:1013400075657565696E67202200000028C200007F
:1013500080BF00000000000048420000484200003A
:101360008040000000005761726E696E673A204845
:101370006F6D696E672042756D7020446976697380
:101380006F72203C20310A000202040000A04000DD
:1013900000A040000000400000834300005D4300C7
:1013A000004843FFFFFF20573A004520436F6F6C12
:1013B000696E672E2E2E00452048656174696E6740
:1013C0002E2E2E0020573A0042656420636F6F6C0A
:1013D000696E672E2E2E004265642068656174690F
:1013E0006E672E2E2E00205A3A0020593A002043D4
:1013F0006F756E7420583A0020453A00205A3A0022
:1014000020593A00583A003A004361703A00205A95
:1014100000205900580020204D61783A2000205AC1
:1014200000205900580020204D696E3A20004F6E70
:1014300020004F666600536F667420656E64737497
:101440006F70733A200023646566696E65204445B9
:101450004641554C545F4B64200023646566696EB9
:10146000652044454641554C545F4B692000236438
:101470006566696E652044454641554C545F4B7026
:101480002000504944204175746F74756E65206664
:10149000696E69736865642120507574207468658D
:1014A000206C617374204B702C204B6920616E643A
:1014B000204B6420636F6E7374616E747320667268
:1014C0006F6D2062656C6F7720696E746F20436F5B
:1014D0006E66696775726174696F6E2E680A005076
:1014E0004944204175746F74756E65206661696C3E
:1014F0006564212074696D656F75740A004531203B
:10150000544845524D414C2052554E415741590087
:10151000546865726D616C2052756E6177617900F7
:1015200045312048656174696E67206661696C6544
:10153000640048656174696E67206661696C656402
:1015400000504944204175746F74756E6520666162
:10155000696C6564212054656D7065726174757283
:101560006520746F6F20686967680A00204B643AD1
:101570002000204B693A2000204B703A20000A20BE
:10158000436C617373696320504944200A002054FE
:10159000753A2000204B753A2000206D61783A2082
:1015A00000206D696E3A200020643A2000206269B4
:1015B00061733A2000504944204175746F74756E10
:1015C00065206661696C65642120426164206578EC
:1015D000747275646572206E756D6265720A005072
:1015E0004944204175746F74756E6520737461721F
:1015F000740A00486F6D6520257325732573206676
:1016000069727374002066697273740A005A005913
:10161000005800486F6D6520004F666673657473EF
:10162000206170706C696564004572723A20546F75
:101630006F206661722100546F6F206661722066B0
:10164000726F6D207265666572656E636520706F7E
:10165000696E740A0024F4D43050C38E20C2A240B4
:1016600017828B7011127A910D816CD90AA861E1F1
:1016700008C7586607615143061E4B5D05C145A763
:10168000041A411104093D9803713931034036DBD6
:101690000265339102D4305402802E1D02632CEE79
:1016A00001752AC501B028A001102781018F25648A
:1016B000012B244B01E0223401AC211F018D200DB0
:1016C00001801FFC00841EED00971DDF00B81CD2B6
:1016D00000E61BC600201BBC00641AB200B219A8A9
:1016E000000A19A0006A189900D117910040178BC1
:1016F00000B516840031167E00B31579003A1573D3
:1017000000C7146F0058146A00EE13660088136354
:101710000025135E00C7125B006C125700151254AF
:1017200000C111510070114F0021114B00D610491A
:10173000008D1047004610440002104200C00F40C8
:1017400000800F3E00420F3C00060F3B00CB0E38DE
:1017500000930E37005C0E3500270E3400F30D3277
:1017600000C10D3100900D3000600D2E00320D2DA6
:1017700000050D2C00D90C2B00AE0C2900850C297E
:10178000005C0C2700350C27000E0C2600E80B240B
:1017900000C40B2400A00B23007D0B23005A0B2157
:1017A00000390B2100180B2000F80A1F00D90A1E6F
:1017B00000BB0A1E009D0A1D00800A1D00630A1C52
:1017C00000470A1B002C0A1B00110A1A00F7091A0D
:1017D00000DD091900C4091900AB091900920917A5
:1017E000007B091800630917004C0916003609161A
:1017F00000200916000A091500F5081500E0081474
:1018000000CC081400B8081400A4081400900813B1
:10181000007D0812006B08130058081200460812D9
:1018200000340811002308110012081100010811EA
:1018300000F0071000E0071000D0071000C00710EC
:1018400000B0070F00A107100091070E0083070FDB
:101850000074070F0065070E0057070E0049070EBA
:10186000003B070D002E070E0020070D0013070D8B
:101870000006070D00F9060C00ED060D00E0060C51
:1018800000D4060C00C8060C00BC060C00B0060C08
:1018900000A4060B0099060C008D060B0082060BB7
:1018A0000077060B006C060B0061060A0057060B5A
:1018B000004C060A0042060A0038060A002E060AF4
:1018C0000024060A001A060A001006090007060A84
:1018D00000FD050900F4050900EB050900E2050912
:1018E00000D9050900D0050900C7050900BE050992
:1018F00000B5050800AD050800A50509009C050810
:1019000000940508008C050800840508007C050883
:1019100000740508006C050700650508005D0507F3
:1019200000560508004E050700470507004005085A
:101930000038050700310507002A050700230507C1
:10194000001C050600160507000F05070008050620
:101950000002050700FB040600F5040700EE04067C
:1019600000E8040600E2040700DB040600D50406D4
:1019700000CF040600C9040600C3040600BD040627
:1019800000B7040600B1040500AC040600A6040676
:1019900000A00405009B04060095040500900406C1
:1019A000008A04050085040500800406007A040509
:1019B0000075040500700405006B0405006604054D
:1019C00000610405005C040500570405005204058D
:1019D000004D04050048040500430405003E0404CE
:1019E000003A04050035040500300404002C040509
:1019F0000027040400230405001E0404001A040444
:101A00000016040500110404000D04040009040577
:101A1000000404040000040400FC030400F80304B0
:101A200000F4030400F0030400EC030400E80304E2
:101A300000E4030400E0030400DC030400D8030412
:101A400000D4030400D0030400CC030400C8030343
:101A500000C503030024F404D9201BC40C5C0E98B9
:101A600004C4095F0265077101F405F900FB04B3C2
:101A70000048048700C1036900580355000303456B
:101A800000BE023A008402310053022A00290225D6
:101A90000004022000E4011C00C8011900AF011776
:101AA00000980114008401130071011000610110FD
:101AB0000051010E0043010D0036010B002B010BFC
:101AC0000020010B00150109000C010900030108A9
:101AD00000FB000800F3000800EB000700E400062C
:101AE00000DE000600D8000600D2000600CC00058B
:101AF00000C7000500C2000500BD000400B90004D5
:101B000000B5000400B1000400AD000400A9000409
:101B100000A5000300A20003009F0004009B000337
:101B2000009800030095000200930003009000035A
:101B3000008D0002008B0003008800020086000276
:101B40000084000300810002007F0002007D00028B
:101B5000007B00020079000200770001007600029D
:101B6000007400020072000100710002006F0002A8
:101B7000006D0001006C0002006A000100690002B3
:101B800000670001006600010065000100640002BA
:101B9000006200010061000100600001005F0002BE
:101BA000005D0001005C0001005B0001005A0001C3
:101BB00000590001005800010057000100560001C3
:101BC00000550001005400010053000000530001C3
:101BD000005200010051000100500001004F0001BF
:101BE000004E0000004E0001004D0001004C0001BD
:101BF000004B0000004B0001004A000100490001B9
:101C000000480000004800010047000100460000B5
:101C100000460001004500000045000100440001AD
:101C200000430000004300010042000000420001A8
:101C3000004100000041000100400001003F0000A1
:101C4000003F0001003E0000003E0001003D00009A
:101C5000003D0001003C0000003C0000003C000191
:101C6000003B0000003B0001003A0000003A000188
:101C70000039000000390001003800000038000081
:101C80000038000100370000003700010036000076
:101C9000003600000036000100350000003500006D
:101CA0000035000100340000003400000034000161
:101CB0000033000000330000003300010032000058
:101CC000003200000032000100310000003100004D
:101CD0000031000100300000003000000030000141
:101CE000002F0000002F0000002F0000002F000137
:101CF000002E0000002E0000002E0001002D00002C
:101D0000002D0000002D0000002D0001002C00001F
:101D1000002C0000002C0000002C0001002B000013
:101D2000002B0000002B0000002B0001002A000007
:101D3000002A0000002A0000002A000100290000FB
:101D400000290000002900000029000000290001EE
:101D500000280000002800000028000000280000E3
:101D600000280001002700000027000000270000D5
:101D700000270000002700010026000000260000C8
:101D800000260000002600000026000100250000BB
:101D900000250000002500000025000000250000AF
:101DA00000250001002400000024000000240000A1
:101DB0000024000000240001002300000023000094
:101DC0000023000000230000002300000023000087
:101DD0000023000100220000002200000022000079
:101DE000002200000022000000220001002100006B
:101DF000002100000021000000210000002100005F
:101E0000002100000021000100200000002000004F
:101E10000020000000200000002000000020000042
:101E20000020000000200001001F0000001F000033
:101E3000001F0000001F0000001F0000001F000026
:101E4000001F0001001E0000001E0000001E000018
:101E5000001E000000043700001E290000511B0076
:101E6000005810000010090000CC040000780200A7
:101E70000041010000A00F001003A00F001002A0FD
:101E80000F0010012C01F401086C079808053A02B4
:101E90006603076E0A360B047E04AA050620746FDB
:101EA0006F206C6F6E6720657874727573696F6EE2
:101EB0002070726576656E7465640A0020636F6CCD
:101EC0006420657874727573696F6E2070726576C0
:101ED000656E7465640A001000C902E0002C010000
:101EE0000122013001180170010E01B0010401F05E
:101EF00001FA005002F000F002E6009003DC00401E
:101F000004D2004005C8004006BE000008B400B07E
:101F100009AA00D00BA000600E960060118C000092
:101F200015820020197800C01D6E00A0226400B048
:101F3000275A00902C500000314600E0343C00103D
:101F4000383200903A2800603C1E00A03D1400800A
:101F50003E0A00203F000025753A253032750025E5
:101F60003032753A25303275002D2D2D0053440046
:101F7000202020202020002020202000334420503A
:101F800072696E7465722052656164792E005072B8
:101F9000696E74696E672E2E2E005072696E742001
:101FA000706175736564005072696E742061626F50
:101FB00072746564004D3231004E6F2053442063CB
:101FC000617264004368616E6765205344206361F9
:101FD0007264004D3231005072696E742066726F07
:101FE0006D2053440053746F70207072696E7400DA
:101FF000526573756D65207072696E7400496E6903
:10200000742E2053442063617264005061757365BF
:10201000207072696E7400436F6E74726F6C005042
:102020007265706172650054756E6500496E666F09
:102030002073637265656E000000211042206330DA
:102040008440A550C660E770088129914AA16BB110
:102050008CC1ADD1CEE1EFF13112100273325222B8
:10206000B5529442F772D662399318837BB35AA360
:10207000BDD39CC3FFF3DEE3622443342004011488
:10208000E664C774A44485546AA54BB528850995B0
:10209000EEE5CFF5ACC58DD5533672261116300658
:1020A000D776F6669556B4465BB77AA71997388700
:1020B000DFF7FEE79DD7BCC7C448E5588668A77818
:1020C0004008611802282338CCC9EDD98EE9AFF950
:1020D000488969990AA92BB9F55AD44AB77A966AF8
:1020E000711A500A333A122AFDDBDCCBBFFB9EEBA0
:1020F000799B588B3BBB1AABA66C877CE44CC55CC8
:10210000222C033C600C411CAEED8FFDECCDCDDDEF
:102110002AAD0BBD688D499D977EB66ED55EF44E97
:10212000133E322E511E700E9FFFBEEFDDDFFCCF3F
:102130001BBF3AAF599F788F8891A981CAB1EBA193
:102140000CD12DC14EF16FE18010A100C230E3200F
:102150000450254046706760B9839893FBA3DAB3B7
:102160003DC31CD37FE35EF3B1029012F322D2325F
:102170003542145277625672EAB5CBA5A895898587
:102180006EF54FE52CD50DC5E234C324A0148104AF
:102190006674476424540544DBA7FAB79987B89757
:1021A0005FE77EF71DC73CD7D326F2369106B016FF
:1021B00057667676154634564CD96DC90EF92FE917
:1021C000C899E9898AB9ABA944586548067827684F
:1021D000C018E1088238A3287DCB5CDB3FEB1EFBF7
:1021E000F98BD89BBBAB9ABB754A545A376A167A9F
:1021F000F10AD01AB32A923A2EFD0FED6CDD4DCDC7
:10220000AABD8BADE89DC98D267C076C645C454CEE
:10221000A23C832CE01CC10C1FEF3EFF5DCF7CDF96
:102220009BAFBABFD98FF89F176E367E554E745E3E
:10223000932EB23ED10EF01E7C3C3E5E2B3D3F2FD6
:102240005B5D3B2C2A225C006265640A002C2073D3
:10225000797374656D2073746F70706564212048A4
:1022600065617465725F49443A2000426564206884
:10227000656174696E67206661696C6564004865B4
:102280006174696E67206661696C65640045312020
:1022900048656174696E67206661696C65640048B1
:1022A000656174696E67206661696C6564004531BB
:1022B00020544845524D414C2052554E41574159AA
:1022C0000042454420544845524D414C2052554E01
:1022D0004157415900546865726D616C2052756EAA
:1022E00061776179004531204572723A204D41583D
:1022F00054454D50004572723A204D415854454D59
:102300005020424544004D415854454D5020747270
:1023100069676765726564004531204572723A20CD
:102320004D494E54454D50004572723A204D494E2C
:1023300054454D5020424544004D494E54454D5062
:1023400020747269676765726564004D383420587F
:102350002059205A204500202F002042403A0020DA
:10236000403A00454550524F4D2064617461736995
:102370007A65206572726F722E0A002053697A6541
:102380003A2000496E6465783A2000B80B0000B826
:102390000B0000E8030000881300000000C84300A1
:1023A00000C84300008040000048420000C84200CE
:1023B00000C8420000C8430000B4420000210024CD
:1023C0000027002A0000002200250028002B000022
:1023D000002000230026002900020202020202025D
:1023E00002040404040404040403030303030303B6
:1023F0000301010101010101010102040810204053
:1024000080010204081020408001020408102040CE
:102410008080402010080402010000000102000931
:102420000A0000000004030807000000000000008C
:102430000000000000000000004D3234004D323337
:1024400020257300556E6B6E6F776E20636F6D6D18
:10245000616E643A20220053442063617264206FED
:102460006B0A006F70656E526F6F74206661696CE5
:1024700065640A00766F6C756D652E696E697420EF
:102480006661696C65640A00534420696E69742052
:102490006661696C0A005654726176206D696E003F
:1024A0005654726176206D696E00565472617620C2
:1024B0006D696E00566D696E00566D696E00566DE1
:1024C000696E00566D6178204500566D6178204533
:1024D00000566D6178204500566D6178205A00568F
:1024E0006D6178205A00566D6178205A00566D61F2
:1024F00078205900566D6178205900566D6178201A
:102500005900566D6178205800566D61782058004A
:10251000566D61782058004D6F74696F6E00416D83
:102520006178204500416D6178204500416D6178FA
:10253000205A00416D6178205A00416D6178205920
:1025400000416D6178205900416D6178205800414B
:102550006D6178205800412D74726176656C004180
:102560002D74726176656C00412D726574726163C1
:102570007400412D72657472616374004163636518
:102580006C00416363656C004D6F74696F6E00563B
:10259000652D6A65726B0056652D6A65726B005613
:1025A000652D6A65726B00567A2D6A65726B0056EE
:1025B0007A2D6A65726B0056792D6A65726B0056CA
:1025C000792D6A65726B0056792D6A65726B0056BB
:1025D000782D6A65726B0056782D6A65726B0056AD
:1025E000782D6A65726B004D6F74696F6E0045726D
:1025F000726F722077726974696E6720746F2045FC
:102600004550524F4D210A0092D046D111241FBE91
:10261000CFEFD0E4DEBFCDBF12E0A0E0B1E0EAE54D
:10262000F2EC01E00BBF02C007900D92A632B10799
:10263000D9F721E1A6E2B2E001C01D92AE33B207A4
:10264000E1F713E1C5E0D3E104C02197FE010E9448
:102650008BE0C430D107C9F70E94B4CB0C9420E1C1
:102660000C9400002F923F924F925F926F927F9254
:102670008F929F92AF92BF92CF92DF92EF92FF9292
:102680000F931F93CF93DF93CDB7DEB7C756D10912
:102690000FB6F894DEBF0FBECDBF21E020934B08EC
:1026A0008091BC078D3411F40C94961C843511F480
:1026B0000C943D28873411F00C9481282090BA079F
:1026C0003090BB0734E02316310409F483C55CF471
:1026D00037FE02C00C94921C8091410152E02516F5
:1026E0003104CCF533C08AE52816310411F40C947A
:1026F000D31B64F4ACE12A16310409F4A9C5BEE188
:102700002B16310409F4C0C50C94921CEBE52E166F
:10271000310411F40C94D71BFCE52F16310411F091
:102720000C94921C98E4292E91E0392E29E5E22E92
:1027300028E0F22E47E053E05DAB4CAB30ECC32E0B
:1027400032E0D32E00E010E00C94161C81110C94A2
:1027500088280C948328882311F40C9483280E94E1
:10276000AC2E82E50E949F2E882309F444C10E946A
:10277000232E4B015C0120E030E0A9010E94BCD86F
:10278000882309F464C12091070330910803409124
:10279000090350910A032CAB3DAB4EAB5FAB80916C
:1027A0000B0390910C03A0910D03B0910E0388AF21
:1027B00099AFAAAFBBAF20916508309166084091F0
:1027C0006708509168082CAF3DAF4EAF5FAF809166
:1027D000690890916A08A0916B08B0916C082896DE
:1027E0008CAF9DAFAEAFBFAF28976CA97DA98EA966
:1027F0009FA90E94BCD881110FC028962CAD3DAD79
:102800004EAD5FAD289768AD79AD8AAD9BAD0E94A6
:10281000BCD8882309F41BC111E092E029163104C9
:1028200009F010E020E030E0A901C501B4010E94E8
:10283000BCD8881F8827881F181759F020E030E07F
:1028400040E85FEB60962CAF3DAF4EAF5FAF609757
:102850000AC080E090E0A0E8BFE360968CAF9DAF37
:10286000AEAFBFAF60972CA93DA94EA95FA96CADD3
:102870007DAD8EAD9FAD0E9431DD2C966CAF7DAFEE
:102880008EAF9FAF2C9728AD39AD4AAD5BAD289682
:102890006CAD7DAD8EAD9FAD28970E9431DD6B0193
:1028A0007C012C962CAD3DAD4EAD5FAD2C97CA0191
:1028B000B9010E9422D92B013C01A7019601C70151
:1028C000B6010E9422D99B01AC01C301B2010E9452
:1028D00032DD0E94E0DF24966CAF7DAF8EAF9FAFFC
:1028E000249720E030E040E05FE30E9422D92B01F2
:1028F0003C01A5019401C501B4010E9422D94B01FC
:102900005C01A3019201C301B2010E9422D99B0183
:10291000AC01C501B4010E9431DD0E94E0DF609688
:102920002CAD3DAD4EAD5FAD60970E9422D94B01FD
:102930005C01C701B601905824962CAD3DAD4EAD5B
:102940005FAD24970E942CDEA50194010E9422D93C
:102950006B017C012CAD3DAD4EAD5FAD6CA97DA989
:102960008EA99FA90E9432DD20E030E040E05FE3C5
:102970000E9422D99B01AC01C701B6010E9432DD41
:102980002CA93DA94EA95FA90E9431DD6B017C01F4
:1029900028962CAD3DAD4EAD5FAD289768AD79ADB5
:1029A0008AAD9BAD0E9432DD20E030E040E05FE385
:1029B0000E9422D92B013C0124962CAD3DAD4EAD99
:1029C0005FAD24972C966CAD7DAD8EAD9FAD2C97F1
:1029D0000E942CDEA50194010E9422D99B01AC012A
:1029E000C301B2010E9432DD28AD39AD4AAD5BAD05
:1029F0000E9431DD14C089E40E949F2E882329F0B3
:102A00000E94232E6B017C0103C0C12CD12C7601C6
:102A10008AE40E949F2E8823E9F00E94232E6CAF47
:102A20007DAF8EAF9FAF20E030E0A901C701B601B6
:102A30000E94BCD881111BC020E030E0A9016CAD20
:102A40007DAD8EAD9FAD0E94BCD8811110C0ECEC65
:102A5000F0E1ACC320E030E0A901C701B6010E945B
:102A6000BCD88823A1F31CAE1DAE1EAE1FAEA701BD
:102A7000960150582CAB3DAB4EAB5FAB8CAD9DADD2
:102A8000AEADBFADB05888AF99AFAAAFBBAFCA016A
:102A9000B9010E9422D94B015C0128AD39AD4AAD84
:102AA0005BADCA01B9010E9422D99B01AC01C501ED
:102AB000B4010E9432DD0E94E0DF6C966CAF7DAF06
:102AC0008EAF9FAF6C972091070330910803409120
:102AD000090350910A0328962CAF3DAF4EAF5FAF6C
:102AE0002897A701960128966CAD7DAD8EAD9FAD60
:102AF00028970E9432DD60966CAF7DAF8EAF9FAF9E
:102B0000609780910B0390910C03A0910D03B091FD
:102B10000E032C968CAF9DAFAEAFBFAF2C972CADF4
:102B20003DAD4EAD5FADBC01CD010E9432DDA09642
:102B30006CAF7DAF8EAF9FAFA097209165083091AD
:102B40006608409167085091680864962CAF3DAFC5
:102B50004EAF5FAF649760962CAD3DAD4EAD5FADAF
:102B6000609764966CAD7DAD8EAD9FAD64970E940D
:102B700031DD6B017C018091690890916A08A09118
:102B80006B08B0916C0868968CAF9DAFAEAFBFAFCD
:102B90006897A0962CAD3DAD4EAD5FADA097BC0142
:102BA000CD010E9431DD4B015C0120910F0330917A
:102BB00010034091110350911203A4962CAF3DAF26
:102BC0004EAF5FAFA49760916D0870916E088091D1
:102BD0006F08909170080E9431DD24966CAF7DAF34
:102BE0008EAF9FAF2497A70196016CA97DA98EA9EE
:102BF0009FA90E9422D92B013C01A501940168AD37
:102C000079AD8AAD9BAD0E9422D99B01AC01C30175
:102C1000B2010E9432DD2B013C01A50194016CA997
:102C20007DA98EA99FA90E9422D94B015C01A70111
:102C3000960168AD79AD8AAD9BAD0E9422D99B010A
:102C4000AC01C501B4010E9431DDA30192010E94D3
:102C5000B1DD6B017C0120E030E0A9010E94BCD80D
:102C600087FF0AC02BED3FE049EC50E4C701B601F5
:102C70000E9432DD6B017C0132E02316310451F4F5
:102C80002BED3FE049EC50E4C701B6010E9431DD75
:102C90006B017C0120E030E0A901C701B6010E9470
:102CA000BCD8811128C064962CAD3DAD4EAD5FAD52
:102CB000649728966CAD7DAD8EAD9FAD28970E9430
:102CC000BCD8811118C068962CAD3DAD4EAD5FAD3E
:102CD00068972C966CAD7DAD8EAD9FAD2C970E9404
:102CE000BCD8811108C0FBEDCF2EFFE0DF2EF9EC40
:102CF000EF2EF0E4FF2EA70196016C966CAD7DAD32
:102D00008EAD9FAD6C970E9422D94B015C0120E0F3
:102D100030E0A90124966CAD7DAD8EAD9FAD2497BA
:102D20000E94BCD88823E9F0A5019401C501B40133
:102D30000E9422D94B015C0124962CAD3DAD4EADD5
:102D40005FAD2497CA01B9010E9422D99B01AC0151
:102D5000C501B4010E9432DD0E94E0DF4B015C013D
:102D60000DC020E030E0A901C501B4010E9492DF4E
:102D700087FF04C0B7FAB094B7F8B0942FE632E1F9
:102D800043E85AE3C501B4010E94BCD887FF02C0E2
:102D90000C948328C501B4010E94D4DE0E94A5DEF4
:102DA0002A967FAF6EAF2A97672B31F481E090E0CF
:102DB0002A969FAF8EAF2A9740901303509014032A
:102DC00060901503709016032A96AEADBFAD2A979A
:102DD000BD0180E090E00E94C1D84B015C019B01E5
:102DE000AC01C701B6010E942CDE28966CAF7DAF06
:102DF0008EAF9FAF2897A501940124966CAD7DAD51
:102E00008EAD9FAD24970E942CDE6C966CAF7DAF8B
:102E10008EAF9FAF6C97A301920160917108709182
:102E2000720880917308909174080E9431DDA501A9
:102E300094010E942CDEA8966CAF7DAF8EAF9FAF41
:102E4000A89728962CAD3DAD4EAD5FAD2897CA0131
:102E5000B9010E9422D920E030E040E05FE30E9407
:102E600022D99B01AC0160E070E080E89FE30E9402
:102E700031DD64966CAF7DAF8EAF9FAF6497A49643
:102E80002CAD3DAD4EAD5FADA49729873A874B87FA
:102E90005C874D865E866F86788A6091100170919E
:102EA0001101072E000C880B990B0E94C3D82091AA
:102EB0002701309128014091290150912A010E9457
:102EC00022D92AE037ED43E25CE30E9422D968A3CD
:102ED00079A38AA39BA30E9452509B01AC01285363
:102EE0003F4F4F4F5F4F68962CAF3DAF4EAF5FAF38
:102EF00068974CA85DA86EA87FA822242394312C43
:102F000039E121963FAF21972A964EAD5FAD2A97C2
:102F10004215530509F426C10E9426AD0E94525065
:102F2000DC01CB0168962CAD3DAD4EAD5FAD689731
:102F3000821B930BA40BB50BB7FD10C00E9452501F
:102F40009B01AC0128533F4F4F4F5F4F68962CAF0A
:102F50003DAF4EAF5FAF68970E94A86321963FAD2B
:102F60002197315021963FAF2197332309F445C073
:102F700028AD39AD4AAD5BAD64966CAD7DAD8EAD1F
:102F80009FAD64970E9422D96B017C019201A3013D
:102F900028966CAD7DAD8EAD9FAD28970E9422D94D
:102FA000A70196010E9432DD7B018C019201A301F1
:102FB00064966CAD7DAD8EAD9FAD64970E9422D9B5
:102FC0004B015C0128AD39AD4AAD5BAD28966CADC7
:102FD0007DAD8EAD9FAD28970E9422D99B01AC019B
:102FE000C501B4010E9431DD2B013C01C701D801AC
:102FF00088AF99AFAAAFBBAF51C0B10180E090E0FC
:103000000E94C1D828962CAD3DAD4EAD5FAD28973E
:103010000E9422D94B015C010E9427DE6B017C01DA
:10302000C501B4010E94D2DF4B015C01A7019601EA
:103030006CA97DA98EA99FA90E9422D92B013C01D0
:103040002CAD3DAD4EAD5FADC501B4010E9422D99E
:10305000A30192010E9432DD2B013C01A5019401E4
:103060006CA97DA98EA99FA90E9422D94B015C0160
:103070002CAD3DAD4EAD5FADC701B6010E9422D96A
:103080009B01AC01C501B4010E9431DD68AF79AF8D
:103090008AAF9BAF49E121964FAF21979201A301DF
:1030A00060966CAD7DAD8EAD9FAD60970E9432DDB8
:1030B00069837A838B839C8328AD39AD4AAD5BAD40
:1030C000A0966CAD7DAD8EAD9FADA0970E9432DD18
:1030D0006D837E838F8398876C962CAD3DAD4EAD0E
:1030E0005FAD6C9769857A858B859C850E9432DD02
:1030F00069877A878B879C87A8962CAD3DAD4EADAE
:103100005FADA8976D857E858F8598890E9432DD99
:103110006D877E878F87988B80911E01882321F091
:10312000CE0101960E94C560E090E0081CA61DA695
:103130001EA61FA6CE018C966C018E01005E1F4F4D
:103140009E01235F3F4FAE01475F5F4FBE016B5F44
:103150007F4F8B970E948989882321F09FEF291A3E
:10316000390AD2CEE090E00818AA19AA1AAA1BAA16
:10317000DE01D0966D018E01005E1F4F21E738E021
:103180004DE658E069E678E085E698E00E94898996
:1031900080E1E5E6F8E0A7E0B3E001900D928A95C2
:1031A000E1F70C9483280E943E30F80184918F014E
:1031B0000F5F1F4F8111F7CFE1E7F1E084918F019D
:1031C0000F5F1F4F882311F40C9483280E943E3018
:1031D000F801F4CF80E50E949F2E882329F00E94F9
:1031E000DF2D6B017C0103C0C12CD12C760183E55E
:1031F0000E949F2E882361F00E94232E20E030E061
:103200004AE754E40E9422D90E94A5DE6B017C01AA
:103210000E9413378091B504811105C060E087E8F2
:1032200091E00E945E860E945250C60ED71EE81E94
:10323000F91E0E945250DC01CB018C199D09AE0988
:10324000BF09B7FD02C00C9483280E94A863F1CF88
:103250008091F8028770873011F00C948D288FE4EC
:103260000E949F2E882341F00E94132E882311F480
:103270000C948D280C9483288FE40E94562E811183
:103280000C9483280C948D28C0900703D0900803D9
:10329000E0900903F0900A0388E50E949F2E8111B7
:1032A00009C020E030E048EA51E4C701B6010E94BD
:1032B00031DD02C00E94232E4B015C01C0900B0344
:1032C000D0900C03E0900D03F0900E0389E50E946E
:1032D0009F2E811109C020E030E04CE252E4C7018A
:1032E000B6010E9431DD02C00E94232E2B013C0159
:1032F0009B01AC01C501B4010E94B762882311F49F
:103300000C9483280E94B02A85E40E949F2E882373
:1033100021F00E94132E382E05C085E40E94562EFF
:103320003324339486E50E949F2E882321F00E9447
:10333000EF2D262E02C022242394A3019201C50161
:10334000B4010E94B762882309F427C220910F03B9
:1033500030911003409111035091120328AF39AFFF
:103360004AAF5BAF8091270190912801A09129017C
:10337000B0912A018CAB9DABAEABBFAB80E090E0CF
:10338000A8ECB2E48093270190932801A09329012F
:10339000B0932A0119821A821B821C8220E030E03D
:1033A0004CE252E4C301B2010E9432DD6CAF7DAF4A
:1033B0008EAF9FAF20E030E048EA51E4C501B40190
:1033C0000E9432DDDE0111966D01E8ACF9AC0AAD68
:1033D0001BAD2CAD3DAD4EAD5FAD0E94CF2A81E05F
:1033E0000E94DF2B8111F3C08091F80282FF13C08D
:1033F0002091910730919207409193075091940743
:1034000060E070E080E090EC0E9431DD68AF79AF61
:103410008AAF9BAF08C020E030E040E251EC28AF1B
:1034200039AF4AAF5BAFC0909107D0909207E09060
:103430009307F090940720E030E0A901C701B6019E
:103440000E94BCD887FF0BC0A701960160E070E026
:1034500080E791E40E9431DD6B017C0106C0C12C44
:10346000D12C60E7E62E61E4F62EA701960160916B
:103470000F037091100380911103909112030E9429
:1034800092DF18160CF04CC0C8A6D9A6EAA6FBA677
:10349000C12CD12C50E8E52E50E4F52ECCA2DDA2B3
:1034A000EEA2FFA2BE016C5D7F4FCE0188960E9406
:1034B000C02B10911C0310921C030E940B6880917A
:1034C000470890914808A0914908B0914A08809314
:1034D0000F0390931003A0931103B09312030E9463
:1034E000352D12FF1DC0C982DA82EB82FC8220E0FA
:1034F00030E040EA50E460910F0370911003809136
:103500001103909112030E9432DD68A379A38AA36C
:103510009BA3BE016F5F7F4FCE0180960E94C02BA0
:1035200088AD99ADAAADBBAD88A399A3AAA3BBA34F
:1035300080E090E0A0E0B0E489839A83AB83BC8311
:10354000BE016F5F7F4FCE0180960E94C02B10910D
:103550001C0310921C030E940B68809147089091F5
:103560004808A0914908B0914A0880930F039093AE
:103570001003A0931103B09312030E94352D12FF84
:1035800009C060910F037091100380911103909115
:10359000120304C060E070E080EC9FE72091910787
:1035A0003091920740919307509194070E9432DD29
:1035B0006B017C0191E0391629F0A2E0A21508F018
:1035C0005BC010C080E00E94DF2B8823B1F332E0A3
:1035D000321510F00C947429C12CD12C40ECE42E3F
:1035E0004FE7F42EE6EDF1E084918F010F5F1F4F5E
:1035F000882321F00E943E30F801F6CF2091C002CE
:103600003091C1024091C2025091C302C501B40180
:103610000E9432DD43E00E946634E1EDF1E08491E6
:103620008F010F5F1F4F882321F00E943E30F80169
:10363000F6CF2091C4023091C5024091C60250914C
:10364000C702C301B2010E9432DD43E00E9466342A
:10365000ECECF1E084918F010F5F1F4F882321F084
:103660000E943E30F801F6CF43E0C701B6010E9448
:1036700066348AE00E943E302CA93DA94EA95FA97C
:1036800020932701309328014093290150932A0168
:10369000A7019601C701B6010E9424E0882331F1F9
:1036A00060E08DEB91E00E945E86ECECF0E18491AD
:1036B0008F010F5F1F4F811103C0EDEAF1E004C0DD
:1036C0000E943E30F801F3CF84918F010F5F1F4FAE
:1036D000882321F00E943E30F801F6CFA701960121
:1036E000C701B6010E9424E0811157C020E030E0FC
:1036F000A901C501B4010E94BCD887FF05C027E11C
:1037000037EB41E558EB04C027E137EB41E558E3DF
:10371000C501B4010E9432DDAB01BC0188EE91E02D
:103720000E94257D20E030E0A901C301B2010E9482
:10373000BCD887FF05C027E137EB41E558EB04C053
:1037400027E137EB41E558E3C301B2010E9432DDC6
:10375000AB01BC0183EE91E00E94257D20E030E0CA
:10376000A901C701B6010E94BCD887FF05C067E167
:1037700077EB81E598EB04C067E177EB81E598E3AF
:10378000A70196010E9432DDAB01BC018EED91E0F4
:103790000E94257D8AE00E943E300E94972A0E9466
:1037A0006C6F0C94832810922A020C948328209327
:1037B0002A020C9483280E94232E2B013C011330F3
:1037C00049F0F60120813181428153810E9431DD2F
:1037D0002B013C01ACA9BDA92D913D914D915C916E
:1037E000C301B2010E9431DD4B015C012DEB37E3D7
:1037F00046E855EB0E9492DF87FD20C02DEB37E3B2
:1038000046E855E3C501B4010E94BCD81816B4F0CF
:103810001F5FB4E0EB0EF11CECA9FDA93496FDABE3
:10382000ECABF4E0CF0ED11C143039F1D1018D9105
:103830001D010E949F2E882359F3BDCF133051F4F0
:103840004092130350921403609215037092160372
:1038500001E0DECFA5019401F701608171818281D1
:1038600093810E9432DDD7016D937D938D939C935C
:103870001397812F0E94812CCBCF002309F44EC0D7
:1038800020E030E0A901609113037091140380914E
:103890001503909116030E9432DD20914F10309154
:1038A000501040915110509152100E9422D90E9404
:1038B0009FDF609307057093080580930905909337
:1038C0000A059091E5048091E604981719F00E948A
:1038D000B53624C00E94133780916F00982F9270E4
:1038E00081FF05C080916F008D7F80936F004091B4
:1038F0000705509108056091090570910A054093EC
:10390000A5105093A6106093A7107093A810992348
:1039100029F080916F00826080936F000E946C6F2D
:103920000C9483280E94CABA0C9483288091BA0709
:103930009091BB078237910509F42CC60CF0DDC0CD
:103940008B34910509F4FDC30CF067C088319105F3
:1039500009F494C2ACF58231910509F454C5BCF464
:1039600097FF02C00C943A28823091050CF4B6C13E
:10397000419711F00C943A2860E083E092E00E94B5
:103980005E865E985E9815985E980C9483288531C3
:10399000910509F458C23CF4449711F00C943A286C
:1039A000EBE1F2E012C28631910509F450C247976B
:1039B00011F00C943A28E091B807F091B90751C280
:1039C0008D31910511F40C948328C4F48A3191054A
:1039D00009F463C20CF45BC28B31910509F46BC22C
:1039E0004C9711F00C943A2840E060E08091B807C1
:1039F0009091B9070E9449570C9483288F31910503
:103A000009F441C30CF4EFC28032910509F4EFC20E
:103A10008A9709F462C30C943A288836910509F410
:103A2000A0C30CF042C08235910509F4E5C424F529
:103A30008D34910509F48DC30CF487C38E34910540
:103A400009F48BC38135910511F00C943A280E943A
:103A500085A90E942A3810926C0B10926B0B68EEAD
:103A600073E080E090E00E94918560E08DE992E053
:103A70000E945E860C9483288435910509F4C3C4A2
:103A80000CF4BDC48535910509F4ECC48C35910561
:103A900011F00C943A2818E4C12E11E0D12E03E461
:103AA000E02E00E1F02E10E0F6C48D36910509F409
:103AB0005AC49CF48A36910509F472C40CF413C4F8
:103AC0008B36910509F488C48C36910511F00C945D
:103AD0003A28109225010C9483288F36910509F419
:103AE00081C30CF46DC38037910509F4CEC38137CF
:103AF000910509F4CEC30C943A288D3D910511F43B
:103B00000C94DD250CF05EC08B39910509F406C4D8
:103B10001CF58737910509F430C674F48537910593
:103B200009F4D0C50CF0DDC58337910511F00C9474
:103B30003A28E2E9F3E06BC58937910509F426C616
:103B40000CF41EC68C38910509F410C48139910516
:103B500009F421C60C943A288C3C910509F418C745
:103B6000F4F4883C910509F48EC64CF48E3B910523
:103B700011F00C943A280E94CB710C948328893C54
:103B8000910509F4D0C68B3C910511F00C943A28AC
:103B900078E4E72E71E0F72E0BE31BE0EAC68E3CDB
:103BA000910511F40C94A8250CF467C7833D910589
:103BB00011F40C94CD258C3D910511F40C94D02575
:103BC0000C943A288C3A31E0930711F40C94CA25EE
:103BD0000CF042C0833651E0950709F47BC0ECF449
:103BE0008D32B1E09B0711F40C9475263CF4823EB3
:103BF000910511F40C944C260C943A288E32F1E085
:103C00009F0711F40C9415278F32914011F00C94FA
:103C10003A280E94296A0C948328813931E093075D
:103C200011F40C947F274CF48039914011F00C94DE
:103C30003A280E9413370C9483288239A1E09A070E
:103C400011F40C9485278A39914011F00C943A288C
:103C50000E94F0690C948328883FE1E09E0711F4EC
:103C60000C949D27ECF4853F21E0920711F40C940D
:103C70008B274CF4843F914011F00C943A280E9419
:103C80003DB60C948328863F51E0950711F40C94BF
:103C90008E27873F914011F40C9491270C943A2879
:103CA0008B38B3E09B0711F40C9483283CF48335E4
:103CB000934011F40C94C0270C943A28803A23E0E6
:103CC000920709F4D3C1873E934011F40C94252840
:103CD0000C943A28ECECF0E10C946C27A090B80717
:103CE000B090B90780E50E949F2E882359F00E946A
:103CF000DF2D6B017C0111E0672B682B692B31F400
:103D000010E004C010E0C12CD12C760183E50E94A4
:103D10009F2E882311F40C9488290E94232E20E0E2
:103D200030E04AE754E40E9422D90E94A5DE6B01EC
:103D30007C0111110BC0672B682B692B39F4A1147E
:103D4000B10421F0D5018C91811102C010E001C0B5
:103D500011E00E941337112329F061E0C5010E9490
:103D6000988605C060E080EF91E00E945E8683E067
:103D700080934B0881E08093EC08C114D104E104E6
:103D8000F104B1F00E945250C60ED71EE81EF91E73
:103D90000E945250DC01CB018C199D09AE09BF096C
:103DA000B7FF0DC08091EC0881110C948D2907C0DC
:103DB0008091EC08882319F00E94A863F9CF0E9433
:103DC00069981092EC080C94832884918F010F5FFE
:103DD0001F4F882321F00E943E30F801F6CF109249
:103DE0008A078DE395E00E946FA28BE1EDE3F5E099
:103DF000DE01159601900D928A95E1F780913B05C1
:103E000090913C059C838B838CE591E09A83898318
:103E100040E050E0BE016F5F7F4F80E090E00E9485
:103E20008454CE0101960E943863ECE0F2E0849164
:103E30008F010F5F1F4F882311F40C9483280E9479
:103E40003E30F801F4CF0E940DBD0C9483281092EF
:103E50000D0510920E050C948328803209F410820F
:103E6000319680818111F9CF40E061E08091B807FF
:103E70009091B9070E9449570C94832880910E05B0
:103E8000811120930D050E94767D0C948328109259
:103E90000D050E9412B00C94832880910E05882392
:103EA00011F40C94832883E50E949F2E81110C94B9
:103EB00091290C94832883E40E94562E882309F4C8
:103EC00050C0E9E5F2E084918F010F5F1F4F882316
:103ED00021F00E943E30F801F6CF8091D806811182
:103EE00003C0ECE2F2E012C0BE016F5F7F4F85EDD0
:103EF00096E00E9436A18E010F5F1F4FF80181915D
:103F00008F01882349F10E943E30F8CF84918F01C0
:103F10000F5F1F4F882301F10E943E30F801F6CF5A
:103F200085E7C82E82E0D82EE12CF12C20E080918C
:103F3000421090E00E2C02C0959587950A94E2F706
:103F400080FD80C13FEFE31AF30A42E0C40ED11CAA
:103F500055E0E516F10459F78AE00E943E300C94D2
:103F6000832880910E05882339F080910D058823E0
:103F700019F0E6E3F2E003C0E8E4F2E028C084913F
:103F80008F010F5F1F4F882321F00E943E30F80100
:103F9000F6CF60918607709187078091880790918E
:103FA00089074AE00E949B338FE20E943E30609175
:103FB00082077091830780918407909185074AE07A
:103FC0000E949B338AE00E943E300C9483288491A7
:103FD0008F010F5F1F4F882311F40C9483280E94D8
:103FE0003E30F801F4CF0E9445300C948328809134
:103FF0000D0581110E94133780910E05882311F45D
:104000000C94832880E50E949F2E882319F00E943B
:10401000132E03C080E50E94562E182F482F61E012
:104020008091B8079091B9070E94495783E50E9493
:104030009F2E882381F00E94EF2DAB01BC0140939D
:10404000860750938707609388077093890785EDEB
:1040500096E00E9427A080910E05882319F081E048
:1040600080930D0511110C9483280DCF8091B80712
:104070009091B90721E020930C0540E060E00E9498
:1040800049570C9483280E94C3AF68A379A38AA3DD
:104090009BA3BE016F5F7F4FCE0180960E945C2F75
:1040A00060E0CE0101960E949886EBEFF0E18491EA
:1040B0008F010F5F1F4F882321F00E943E30F801CF
:1040C000F6CFBE016F5F7F4F88E692E00E945B7D76
:1040D0008AE00E943E300C94832883E50E949F2E44
:1040E000882311F40C9483280E94FF2DE82E80E58C
:1040F0000E949F2E882339F00E94FF2D182F87FFE2
:1041000003C00C9483281BE189E40E949F2E88231E
:1041100041F00E94132E81110C94F229ECE9F4E095
:104120000BC089E40E94562EF6CF319624E0E93C7C
:10413000F20711F40C94F22984911813F6CF0C9421
:10414000EF290E94767D0C9483280E9412B00C9473
:1041500083280E94BD7D0C9483280E94DB340C943C
:10416000832888E690E00E94083481110C9483280B
:104170008091421083FF02C00C94832883E50E9443
:104180009F2E8823C9F00E94232E0E949EDE7093EA
:1041900019116093181180E00E9439A90E94232E02
:1041A00020E030E04AEA52E40E94BCD8181624F01D
:1041B0000E94BD7D0E9469980E943F7E0C948328D6
:1041C0008EE40E949F2E882311F40C9483280E9471
:1041D000EF2D6093B1047093B2048093B304909375
:1041E000B40491C783E50E94562E882359F083E5D5
:1041F0000E949F2E882319F00E94FF2D01C080E0AD
:1042000080934210EBEFF0E184918F010F5F1F4F1D
:10421000811103C0E3E8F2E004C00E943E30F801DF
:10422000F3CF84918F010F5F1F4F882321F00E94ED
:104230003E30F801F6CF80914210811171CEEFE748
:10424000F2E018C0BB24B394B20E222319F08CE222
:104250000E943E30F60185919491FC0184918F017A
:104260000F5F1F4F882321F00E943E30F801F6CFE8
:104270002B2D68CE84918F010F5F1F4F882309F487
:104280006BCE0E943E30F801F5CF8AE892E00E94A2
:10429000546383E50E949F2E811103C0EBEFF0E190
:1042A0000BC00E94FF2D8D3318F480932B012BC778
:1042B0008CE380932B0127C784918F010F5F1F4FE1
:1042C000882321F00E943E30F801F6CF40912B0167
:1042D00050E060E070E083E992E00E94087D8AE0AF
:1042E0000E943E3010C789E690E00E940834811198
:1042F00011C0EAE9F2E084918F010F5F1F4F88231C
:1043000021F00E943E30F801F6CF0E9431A88AE0E9
:104310000E943E3010924B080C94072A83E50E94BD
:104320009F2E882309F4EFC60E94FF2D182F8D338E
:1043300008F01CE3109358080E9452506B017C0156
:10434000212F30E0A8EEB3E00E9422DDC60ED71E7A
:10435000E81EF91EC0925408D0925508E092560803
:10436000F0925708D0C60E94A473CDC68091421027
:1043700083FDC9C683E50E949F2E882309F4C3C626
:104380000E94232E0E949EDE6238710514F062E8BE
:1043900070E070931711609316110E94EEA8B3C6D7
:1043A00080E50E949F2E811106C083E50E949F2E0A
:1043B000882359F005C00E94FF2D8111A4C6F5CFB6
:1043C0000E94EF2D6F3F710510F06FEF70E070935A
:1043D0006C0B60936B0B97C680E50E949F2E81113A
:1043E00005C010926C0B10926B0B8DC60E94EF2DC6
:1043F000672B09F088C6F5CF1092290284C681E0A8
:104400008093290280C683E50E949F2E882399F01D
:104410000E94232E20E030E04AE754E40E9422D993
:104420000E94A5DE60932C0170932D0180932E01D4
:1044300090932F0168C688E50E94562E811182C78D
:1044400089E50E94562E81117DC78AE50E94562E6D
:10445000811178C785E40E94562E811173C70E948E
:104460002A3851C683E50E94562E882309F44BC68C
:104470000E94232E20E030E04AE754E40E9422D933
:104480000E94A5DE609350087093510880935208F3
:104490009093530838C6D6018D916D010E94562E17
:1044A000882309F46DC0133009F063C00E94232EE5
:1044B0004B015C0120E030E040EA51E40E94BCD8AE
:1044C00087FF4EC0A501940160914F10709150106C
:1044D00080915110909152100E942CDE2B013C01D2
:1044E0009B01AC016091170B7091180B8091190B17
:1044F00090911A0B0E9422D96093170B7093180B9E
:104500008093190B90931A0BA30192016091470BB2
:104510007091480B8091490B90914A0B0E9422D9CF
:104520006093470B7093480B8093490B90934A0B11
:104530006091270B7091280B8091290B90912A0B89
:104540000E94C1D8A30192010E9422D90E94A5DE37
:104550006093270B7093280B8093290B90932A0B61
:1045600080924F1090925010A0925110B092521021
:1045700007C00E94232EF701608371838283938397
:104580001F5FF4E0EF0EF11C143009F084CF0E949D
:10459000CA7EB9C50E94133783E50E949F2E8823E7
:1045A00009F4BCC90E94EF2D6230710509F0B6C94B
:1045B0000E940B688BE50E943E3060913F0870912D
:1045C0004008809141089091420842E00E94663480
:1045D0004091430850914408609145087091460805
:1045E00080EB92E00E94257D409147085091480859
:1045F0006091490870914A088DEA92E00E94257DF9
:104600008DE50E943E308AE00E943E307CC5849158
:104610008F010F5F1F4F882321F00E943E30F80169
:10462000F6CF60E082E893E00E94356F61E08BE7AF
:1046300093E00E94356F61E080E793E00E94356F60
:1046400061E080E693E00E94356F60E087E593E0EB
:104650000E94356F61E08DE493E00E94356F60E069
:1046600083E493E00E94356F61E08BE393E00E9466
:10467000356F60E08DE293E00E94356F60E08FE17E
:1046800093E00E94356F60E080E193E00E94356F17
:1046900060E082E093E00E94356F60E08CEE92E093
:1046A0000E94356F60E08BED92E00E94356F60E014
:1046B00086EC92E00E94356F61E083EB92E00E940D
:1046C000356F21C58091B8079091B907DC012C9115
:1046D000222321F060E00E94988615C50E94699807
:1046E00012C50091B8071091B90783E0D12C40E0C2
:1046F0008150E1F0F8019081292F2B7F2134C1F7FF
:1047000021812133A9F7913421F0953421F441E03E
:1047100002C0DD24D39498012E5F3F4F89012F5FA3
:104720003F4FD8019C919032C9F3E2CF442369F006
:10473000EBEFF0E184917F01BFEFEB1AFB0A8823D6
:1047400021F00E943E30F701F5CFDD2069F0E8E569
:10475000F4E084917F012FEFE21AF20A882321F01E
:104760000E943E30F701F5CFD8018D918D0188234D
:1047700009F4F2CB0E943E30F7CF0E94BD3AC3C489
:1047800081E08093F7028093F602BDC41092F70295
:104790001092F602B8C483E50E949F2E882319F078
:1047A0000E94EF2D02C060E070E08B011127023003
:1047B0001105D4F0ECECF0E184918F010F5F1F4FF5
:1047C000811103C0ECE5F4E004C00E943E30F80122
:1047D000F3CF84918F010F5F1F4F882309F493C497
:1047E0000E943E30F801F5CF88E40E949F2E882376
:1047F000A9F00E94EF2D6A3A71053CF06530B1E0F6
:104800007B072CF064E071E002C06AEA70E0F80116
:10481000EE0FFF1FE455FD4F7183608386E40E9415
:104820009F2E8823A9F00E94EF2DF801EE0FFF1FA5
:10483000E055FD4F718360836F3F710519F014F0EF
:104840006FEF70E077FF02C060E070E0718360831B
:1048500082E40E949F2E882309F455C40E94EF2D04
:104860006530710534F0643771052CF063E770E052
:1048700002C065E070E0000F111FF801E855FD4F20
:104880007183608340C488EC90E00E9408348111F9
:104890003AC484E40E94562E882309F441C00E9441
:1048A000232E6B017C0111E020E030E0A9010E9481
:1048B000BCD8811101C010E01093990720E030E0CE
:1048C000A901C701B6010E94BCD8882349F10E9402
:1048D000232EE091B71024E0E29FF0011124EB5663
:1048E000F84F608371838283938320E030E0A901D5
:1048F000609195077091960780919707909198071E
:104900000E94BCD881110CC080E090E0A0EEBFE313
:104910008093950790939607A0939707B093980775
:104920000E941D36F0C3E8E4EE2EE1E0FE2E08E220
:1049300011E1D7018D917D010E94562E882349F007
:104940000E94232E0E94A5DEF8016083718382837A
:1049500093830C5F1F4FF1E108331F0751F70E944B
:104960006F7ED1C30C5F1F4FFBE00B341F0709F4B0
:10497000CAC3D7018D917D010E94562E882391F3E1
:104980000E94232EF8016083718382839383EACF90
:1049900083E50E949F2E8823A1F00E94232E60931E
:1049A000330B7093340B8093350B9093360B6093DD
:1049B0002F0B7093300B8093310B9093320B10E0E0
:1049C00001C011E080E50E949F2E882359F00E94CB
:1049D000232E6093330B7093340B8093350B90939D
:1049E000360B10E082E50E949F2E882359F00E942A
:1049F000232E6093370B7093380B8093390B909371
:104A00003A0B10E084E50E949F2E882359F00E9403
:104A1000232E60932F0B7093300B8093310B909368
:104A2000320B71C3112309F46EC34091330B5091C3
:104A3000340B6091350B7091360B84E894E00E9442
:104A4000257D4091370B5091380B6091390B709157
:104A50003A0B81E894E00E94257D40912F0B509104
:104A6000300B6091310B7091320B8EE794E00E9415
:104A7000257D8AE00E943E3046C381E50E94562E85
:104A8000882351F00E94DF2D60934F0B7093500BE1
:104A90008093510B9093520B83E50E94562E8823EE
:104AA00051F00E94232E6093670B7093680B8093E4
:104AB000690B90936A0B84E50E94562E882351F06F
:104AC0000E94232E6093630B7093640B8093650B9D
:104AD0009093660B88E50E94562E882351F00E9421
:104AE000232E60930B0B70930C0B80930D0B909304
:104AF0000E0B89E50E94562E882351F00E94232E2A
:104B000060930F0B7093100B8093110B9093120B0B
:104B10008AE50E94562E882351F00E94232E60932E
:104B2000130B7093140B8093150B9093160B85E465
:104B30000E94562E882309F4E6C20E94232E609319
:104B4000170B7093180B8093190B90931A0BDBC201
:104B500058E4C52E51E0D52E6BEFE62E62E0F62E1E
:104B600010E0D6018D916D010E94562E882351F0E0
:104B70000E94232EF7016083718382839383812FA8
:104B80000E94812C1F5FF4E0EF0EF11C133049F7F7
:104B90000C948E1C0E943670B6C20E94576EB3C22F
:104BA00083E50E949F2E882309F4ADC20E94EF2D59
:104BB0007093110160931001A6C28DED90E00E94E8
:104BC00008348111A0C283E50E949F2E811103C089
:104BD000EBEFF0E13BC00091B71010E00E94EF2D29
:104BE000000F111FF801E25FFE4F71836083809117
:104BF000B71090E08C01000F111F000F111F9801DA
:104C0000255C3E4F7901880F991FFC01E25FFE4F42
:104C100060817181072E000C880B990B0E94C3D80C
:104C20002AE037ED43E25CE30E9422D9F801E45424
:104C3000FD4F20813181428153810E9422D9D701C9
:104C40006D937D938D939C9313975DC284918F0197
:104C50000F5F1F4F882321F00E943E30F801F6CFEE
:104C600085E40E943E308091B710805D0E943E3006
:104C7000E091B710F0E0EE0FFF1FE25FFE4F6081A2
:104C8000718184E994E00E94427D85E20E943E3079
:104C90008AE00E943E3037C280E50E94562E88236B
:104CA00009F431C20E94EF2D6B017C0183E50E9463
:104CB0009F2E882321F00E94EF2D8B0102C00FEF61
:104CC0001FEFC8010196039708F01DC2D7FC1BC255
:104CD0008C2DECE9F4E09491891709F480C33196A6
:104CE000B4E0E93CFB07B9F752C385E40E949F2E6C
:104CF000811110C080E50E94562E882391F00E94F9
:104D0000232E60939B0270939C0280939D0290934C
:104D10009E0207C00E94FF2D882361F3ECECF0E1B6
:104D200071C089E40E94562E882381F00E94232EB0
:104D30002CEA35EC47E25EE30E9422D96093A3029D
:104D40007093A4028093A5029093A60284E40E942B
:104D5000562E882381F00E94232E2CEA35EC47E260
:104D60005EE30E942CDE60939F027093A00280930A
:104D7000A1029093A202EBEFF0E184918F010F5F0B
:104D80001F4F882321F00E943E30F801F6CF40915A
:104D90009B0250919C0260919D0270919E0281ED58
:104DA00094E00E94257D2CEA35EC47E25EE36091B9
:104DB000A3027091A4028091A5029091A6020E9484
:104DC0002CDEAB01BC018DEC94E00E94257D2CEA29
:104DD00035EC47E25EE360919F027091A002809102
:104DE000A1029091A2020E9422D9AB01BC0189ECE0
:104DF00094E00E94257D8AE00E943E3084C10E949A
:104E00003E30F80184918F010F5F1F4F8111F7CF62
:104E1000E5EDF4E084918F010F5F1F4F882309F4C3
:104E200072C10E943E30F801F5CF83E50E94562EF4
:104E3000182F882371F00E94232E0E949EDE70930B
:104E4000400160933F0121E0672B09F020E02093AF
:104E50006D0B80E50E94562E882359F020913F016A
:104E600030914001232B11F00E94132E80936D0B83
:104E70004AC1111148C1EBEFF0E184918F010F5F3E
:104E80001F4F882321F00E943E30F801F6CF809119
:104E90006D0B882319F060E072E002C063E072E0FD
:104EA0008CEF94E00E945B7D60913F017091400126
:104EB0008BEE94E00E94427DE7EEF4E084918F0156
:104EC0000F5F1F4F882309F41EC10E943E30F80176
:104ED000F5CF0E943E30F80184918F010F5F1F4F84
:104EE0008111F7CFEFE0F5E084918F010F5F1F4F45
:104EF000882309F408C10E943E30F801F5CF81E013
:104F00000E94DF2B0E946C6FFEC080E00E94DF2BAE
:104F10000E946C6FF8C00E942FB6F5C00E9484B04A
:104F2000F2C083E50E94562E882321F00E94132EA2
:104F300091E089270E94EA3AE6C02093FE100E9481
:104F40008CB11092FE10882309F4DDC0EBEFF0E184
:104F500084918F010F5F1F4F811103C0EEE1F5E0D7
:104F600004C00E943E30F801F3CF84918F010F5F9F
:104F70001F4F882309F4C7C00E943E30F801F5CFC7
:104F80008AE50E949F2E811103C0EBEFF0E13BC048
:104F90000E94232E6B017C0120E030E040EA51ECBE
:104FA0000E9492DF87FD0AC020E030E040EA51E431
:104FB000C701B6010E94BCD818161CF4ECECF0E155
:104FC0000CC0C0929107D0929207E0929307F092A2
:104FD000940799C00E943E30F80184918F010F5FC1
:104FE0001F4F8111F7CFE9E2F5E084918F010F5F48
:104FF0001F4F882309F487C00E943E30F801F5CF87
:105000000E943E30F80184918F010F5F1F4F811184
:10501000F7CFE9E4F5E084918F010F5F1F4F8823FC
:1050200021F00E943E30F801F6CF40919107509157
:105030009207609193077091940786E495E00E942F
:10504000257D8AE00E943E305EC081E08093410170
:1050500010920A0B83E50E949F2E882339F00E944C
:10506000132E811150C00E9444684DC083E50E94F8
:10507000562EF7CF0E94CABA46C0F090BA070E94D7
:105080001337FF2029F1EBEFF0E184918F010F5FDF
:105090001F4F882321F00E943E30F801F6CF84E5AF
:1050A0000E943E306F2D70E080E090E04AE00E9468
:1050B0009B3380E20E943E30EAE6F5E084918F0166
:1050C0000F5F1F4F8823F9F00E943E30F801F6CFA2
:1050D0001092E008EBEFF0E184918F010F5F1F4F1A
:1050E000882321F00E943E30F801F6CF6091E0085D
:1050F00070E088E595E00E94427D8AE00E943E30A3
:1051000002C00E94CABA10924B080E9427687FC151
:105110000E94AC2E0E94F666F6CF0E9413370E94C2
:10512000B02A11E01093F70288E50E94562EB82E9F
:1051300089E50E94562E082F8AE50E94562EA82E39
:10514000B11004C0011104C01A2505C0011102C02C
:1051500010E001C01A2D80E1E7E0F3E0A5E6B8E039
:1051600001900D928A95E1F782E50E949F2E882397
:1051700061F00E94232E6B017C0120E030E0A90148
:105180000E94BCD8882371F106C0C12CD12C70EAD2
:10519000E72E70E4F72E111104C0B11002C00023F5
:1051A00091F1C0926D08D0926E08E0926F08F09273
:1051B0007008A701960160910F0370911003809110
:1051C0001103909112030E94BCD887FF0BC0198273
:1051D0001A821B821C82BE016F5F7F4F8DE698E0B2
:1051E0000E94C02B111105C0B11003C0011106C0EF
:1051F0000AC080E00E9457611123C1F381E00E9440
:105200005761111103C0AA2009F460C08091F8020F
:1052100083708330F9F060E08FE991E00E945E8650
:10522000EBEFF0E184918F010F5F1F4F811103C0FD
:10523000E0E9F1E004C00E943E30F801F3CF849130
:105240008F010F5F1F4F882309F440C00E943E303A
:10525000F801F5CF0E94352DE0900F03F090100378
:105260000091110310911203E0926D08F0926E0804
:1052700000936F081093700880E090E0A3E0B3E41F
:105280008093650890936608A0936708B0936808B8
:1052900080E090E0A9E1B3E48093690890936A0804
:1052A000A0936B08B0936C0819821A821B821C822F
:1052B000FE0131966F019C01AD0160E070E083E07A
:1052C00093E40E94CF2A82E00E9457610E94352D0C
:1052D0008091F6028093F7020E94972A83E08093E0
:1052E00026010E946C6F0FCF2CA93DA94EA95FA982
:1052F00020932701309328014093290150932A01DC
:10530000C12CD12C80ECE82E8FE7F82E0C94501B8A
:1053100011110C94A61E0C949F1E0E94A8630C945D
:10532000C81E0E94EF2DAB01BC014093860750932D
:105330008707609388077093890785ED96E00E9440
:1053400027A0E1CE0E94133788E50E94562E8823BD
:1053500031F05E9A8091F8028E7F8093F80289E5A1
:105360000E94562E882331F05E9A8091F8028D7F3C
:105370008093F8028AE50E94562E882309F4C3CE52
:10538000159A8091F8028B7F8093F802BCCE0E9420
:105390001337BC2C60E08C2D0E94D1BC0F3F4FEF27
:1053A000140759F48C2D0E9479BC31E020E0892B40
:1053B00009F030E0032F122F05C00130110561F410
:1053C00001E010E08B2D0E9479BC8017910709F451
:1053D0009ACE0E94A863F6CF00E010E0F3CF0E94BF
:1053E00099CB91CE61E0812F0E94D1BC6E2D812F8F
:1053F0000E94A2BCF12CB701812F0E9452BE143032
:1054000009F081CEF0926C0BE0926B0B7CCEC95907
:10541000DF4F0FB6F894DEBF0FBECDBFDF91CF9147
:105420001F910F91FF90EF90DF90CF90BF90AF90C2
:105430009F908F907F906F905F904F903F902F90B4
:10544000089590911B03E92FF0E0E95EFC4F808303
:105450009F5F943018F490931B0302C010921B03BB
:1054600080919E048F5F80939E040895089580E04C
:1054700090E0089580913D0890913E08981759F06A
:10548000E92FF0E0E354F84F80819F5F9F7790937E
:105490003E0890E008958FEF9FEF0895CF92DF923E
:1054A000EF920F931F93CF93DF9300D000D0CDB72F
:1054B000DEB7E090E00819821A821B821C82CE01BE
:1054C00001966C0107E211E023E133E04FE053E085
:1054D0006BE073E087E093E00E9489890F900F9062
:1054E0000F900F90DF91CF911F910F91EF90DF9070
:1054F000CF900895CF93FC0120812B33A9F0209108
:105500009E04243088F4C62FBC0180911B03F0E672
:105510008F9FC0011124835E9C4F0E94F1E08C2F6D
:105520000E94212A81E001C080E0CF9108958091FE
:10553000960290919702A0919802B091990280935F
:10554000270190932801A0932901B0932A0180910B
:105550009402909195029093110180931001089507
:105560008091270190912801A0912901B0912A01F1
:105570008093960290939702A0939802B093990219
:105580008091100190911101909395028093940263
:1055900084E690E0909311018093100108952F927A
:1055A0003F924F925F926F927F928F929F92AF92B3
:1055B000BF92CF92DF92EF92FF920F931F93CF9300
:1055C000DF93CDB7DEB72A970FB6F894DEBF0FBED4
:1055D000CDBF2B013C012D833E834F83588747016C
:1055E0005801DA86C9868091270190912801A091FF
:1055F0002901B0912A0189839A83AB83BC83D601A8
:105600001C9111960C91119712963C90129713963B
:105610002C9020E030E0A901612F702F832D922D76
:105620000E94BCD881110AC0EEE5F3E18591959105
:10563000A591B491182F092F3A2E2B2EA501940174
:1056400060910F03709110038091110390911203E8
:105650000E94BCD887FF16C0812F902FA32DB22D9A
:105660008093270190932801A0932901B0932A01E8
:1056700080920F0390921003A0921103B092120334
:105680000E944E2AE985FA85C080D180E280F380AD
:1056900020E030E0A901C701B6010E94BCD8811109
:1056A00006C0C12CD12C88ECE82E82E4F82EC092E2
:1056B0002701D0922801E0922901F0922A0140921C
:1056C0000703509208036092090370920A038D81C8
:1056D0009E81AF81B88580930B0390930C03A093B8
:1056E0000D03B0930E030E944E2A20910F033091B8
:1056F00010034091110350911203C501B4010E949F
:10570000BCD887FF16C0812F902FA32DB22D809378
:10571000270190932801A0932901B0932A01809238
:105720000F0390921003A0921103B09212030E94F3
:105730004E2A0E94133789819A81AB81BC81809364
:10574000270190932801A0932901B0932A012A965A
:105750000FB6F894DEBF0FBECDBFDF91CF911F9182
:105760000F91FF90EF90DF90CF90BF90AF909F9000
:105770008F907F906F905F904F903F902F90089503
:10578000CF92DF92EF92FF920F931F936B01FC0178
:10579000E080F18002811381E7E0F3E0248135812C
:1057A0004681578160817181828193810E94CF2AD5
:1057B0001F910F91FF90EF90DF90CF900895BF92CF
:1057C000CF92DF92EF92FF920F931F93CF93DF93CD
:1057D000CDB7DEB728970FB6F894DEBF0FBECDBFAA
:1057E0009091F902981709F47BC0B82E882309F428
:1057F00054C080E090E0A0E2B1E48D839E83AF834B
:10580000B887C0909107D0909207E0909307F090EE
:10581000940720E030E0A901C701B6010E94BCD87E
:1058200087FF0CC0A701960160E070E080E291E480
:105830000E9431DD6D837E838F83988720E030E086
:1058400048E453E46D817E818F8198850E9492DFC8
:10585000181644F480E090E0A8E4B3E48D839E83BE
:10586000AF83B8872D813E814F81588560910F03AA
:105870007091100380911103909112030E94BCD883
:1058800087FF0BC019821A821B821C82BE016F5FC8
:105890007F4FCE0105960E94C02B60910703709147
:1058A00008038091090390910A0320910B03309122
:1058B0000C0340910D0350910E0319821A821B8232
:1058C0001C82E0900F03F0901003009111031091DF
:1058D0001203FE0131966F010E94CF2AB092F902A5
:1058E00080E028960FB6F894DEBF0FBECDBFDF91E3
:1058F000CF911F910F91FF90EF90DF90CF90BF90CD
:1059000008950F931F93CF93DF9394E0899FE00155
:1059100011248E0100541D4FFE01E550FD4FDE01A4
:10592000A75AB74F2D913D914D915C916081718146
:10593000828193810E9432DDF801608371838283CA
:105940009383FE01E95DF84F85919591A591B491FE
:10595000FE01E453FD4F80839183A283B383FE0154
:10596000ED5CF84F85919591A591B491CE5EDE4F97
:1059700088839983AA83BB83DF91CF911F910F9175
:105980000895CF93DF93EC0160E0CE010E947A2A64
:10599000811103C00E94A863F7CFCE010E949662D6
:1059A0008823C1F3DF91CF910895DF92EF92FF92A8
:1059B0000F931F93CF93DF93CDB7DEB76E970FB6DC
:1059C000F894DEBF0FBECDBF6091231170912411FA
:1059D0006115710509F14DE150E0CE0101967C01A0
:1059E0000E942BD81E8EF7018F010E191F09D1902E
:1059F000DD2019F09AE0D912F7CFF701E00FF11F7F
:105A0000108260E0C7010E947A2A882329F0C7012A
:105A10000E949662811109C081E02091231130918A
:105A20002411232BA1F480E012C0DD2049F00F5F88
:105A30001F4F8091231190912411080F191F02C04C
:105A400000E010E01093241100932311E5CF6E962F
:105A50000FB6F894DEBF0FBECDBFDF91CF911F917F
:105A60000F91FF90EF90DF90089523E133E04FE036
:105A700053E06BE073E087E093E00C9423372F92C0
:105A80003F924F925F926F927F929F92AF92BF929E
:105A9000CF92DF92EF92FF920F931F93CF93DF93FA
:105AA000CDB7DEB728970FB6F894DEBF0FBECDBFD7
:105AB0001A012B01922EF32EC82ED12CF601ED5592
:105AC000FC4EE491AA24A3941E160CF4A12CBB2432
:105AD000B39420E030E0A901C201B1010E9492DF3D
